{
  "_format": "hh-sol-artifact-1",
  "contractName": "WavePortal",
  "sourceName": "contracts/WavePortal.sol",
  "abi": [
    {
      "inputs": [],
      "stateMutability": "payable",
      "type": "constructor"
    },
    {
      "anonymous": false,
      "inputs": [
        {
          "indexed": true,
          "internalType": "address",
          "name": "from",
          "type": "address"
        },
        {
          "indexed": false,
          "internalType": "uint256",
          "name": "timestamp",
          "type": "uint256"
        },
        {
          "indexed": false,
          "internalType": "string",
          "name": "message",
          "type": "string"
        }
      ],
      "name": "NewWave",
      "type": "event"
    },
    {
      "inputs": [
        {
          "internalType": "string",
          "name": "message",
          "type": "string"
        }
      ],
      "name": "AddWave",
      "outputs": [],
      "stateMutability": "nonpayable",
      "type": "function"
    },
    {
      "inputs": [],
      "name": "addressThatWavedUs",
      "outputs": [],
      "stateMutability": "view",
      "type": "function"
    },
    {
      "inputs": [],
      "name": "getAllWaves",
      "outputs": [
        {
          "components": [
            {
              "internalType": "address",
              "name": "waver",
              "type": "address"
            },
            {
              "internalType": "string",
              "name": "message",
              "type": "string"
            },
            {
              "internalType": "uint256",
              "name": "timestamp",
              "type": "uint256"
            }
          ],
          "internalType": "struct WavePortal.Wave[]",
          "name": "",
          "type": "tuple[]"
        }
      ],
      "stateMutability": "view",
      "type": "function"
    },
    {
      "inputs": [],
      "name": "getTotalWavesCount",
      "outputs": [
        {
          "internalType": "uint256",
          "name": "",
          "type": "uint256"
        }
      ],
      "stateMutability": "view",
      "type": "function"
    }
  ],
  "bytecode": "0x6080604052655af3107a400060045533600260006101000a81548173ffffffffffffffffffffffffffffffffffffffff021916908373ffffffffffffffffffffffffffffffffffffffff160217905550620000a16040518060600160405280602d81526020016200144d602d9139600260009054906101000a900473ffffffffffffffffffffffffffffffffffffffff16620000a760201b620006891760201c565b62000293565b620001498282604051602401620000c0929190620001c8565b6040516020818303038152906040527f319af333000000000000000000000000000000000000000000000000000000007bffffffffffffffffffffffffffffffffffffffffffffffffffffffff19166020820180517bffffffffffffffffffffffffffffffffffffffffffffffffffffffff83818316178352505050506200014d60201b60201c565b5050565b60008151905060006a636f6e736f6c652e6c6f679050602083016000808483855afa5050505050565b620001818162000218565b82525050565b60006200019482620001fc565b620001a0818562000207565b9350620001b28185602086016200024c565b620001bd8162000282565b840191505092915050565b60006040820190508181036000830152620001e4818562000187565b9050620001f5602083018462000176565b9392505050565b600081519050919050565b600082825260208201905092915050565b600062000225826200022c565b9050919050565b600073ffffffffffffffffffffffffffffffffffffffff82169050919050565b60005b838110156200026c5780820151818401526020810190506200024f565b838111156200027c576000848401525b50505050565b6000601f19601f8301169050919050565b6111aa80620002a36000396000f3fe608060405234801561001057600080fd5b506004361061004c5760003560e01c806353862915146100515780639d9e7ef51461005b578063bd43a90814610079578063e0dc4f7614610097575b600080fd5b6100596100b3565b005b6100636101d7565b6040516100709190610d7d565b60405180910390f35b610081610222565b60405161008e9190610c99565b60405180910390f35b6100b160048036038101906100ac9190610a2a565b610373565b005b6100f16040518060400160405280601d81526020017f466f6c6c6f77696e672041646472657373657320776176656420757321000000815250610725565b60005b6001805490508110156101d4576101c16001828154811061013e577f4e487b7100000000000000000000000000000000000000000000000000000000600052603260045260246000fd5b906000526020600020906002020160000160009054906101000a900473ffffffffffffffffffffffffffffffffffffffff16600183815481106101aa577f4e487b7100000000000000000000000000000000000000000000000000000000600052603260045260246000fd5b9060005260206000209060020201600101546107be565b80806101cc90610fc6565b9150506100f4565b50565b600061021a6040518060400160405280601481526020017f546f74616c20776176657320636f756e743d256400000000000000000000000081525060035461085a565b600354905090565b60606000805480602002602001604051908101604052809291908181526020016000905b8282101561036a57838290600052602060002090600302016040518060600160405290816000820160009054906101000a900473ffffffffffffffffffffffffffffffffffffffff1673ffffffffffffffffffffffffffffffffffffffff1673ffffffffffffffffffffffffffffffffffffffff1681526020016001820180546102cf90610f63565b80601f01602080910402602001604051908101604052809291908181526020018280546102fb90610f63565b80156103485780601f1061031d57610100808354040283529160200191610348565b820191906000526020600020905b81548152906001019060200180831161032b57829003601f168201915b5050505050815260200160028201548152505081526020019060010190610246565b50505050905090565b6001600360008282546103869190610e8f565b925050819055506103cc6040518060400160405280600d81526020017f257320686173207761766564210000000000000000000000000000000000000081525033610689565b600060405180606001604052803373ffffffffffffffffffffffffffffffffffffffff16815260200183815260200142815250908060018154018082558091505060019003906000526020600020906003020160009091909190915060008201518160000160006101000a81548173ffffffffffffffffffffffffffffffffffffffff021916908373ffffffffffffffffffffffffffffffffffffffff160217905550602082015181600101908051906020019061048b92919061091f565b50604082015181600201555050600160405180604001604052803373ffffffffffffffffffffffffffffffffffffffff1681526020016001815250908060018154018082558091505060019003906000526020600020906002020160009091909190915060008201518160000160006101000a81548173ffffffffffffffffffffffffffffffffffffffff021916908373ffffffffffffffffffffffffffffffffffffffff1602179055506020820151816001015550503373ffffffffffffffffffffffffffffffffffffffff167f5f7e16dc676677766a70e9c5628aa6c54ddb8b6e5188e2ae1e1f17f1ffbea716428360405161058a929190610d98565b60405180910390a24760045411156105d7576040517f08c379a00000000000000000000000000000000000000000000000000000000081526004016105ce90610d5d565b60405180910390fd5b60003373ffffffffffffffffffffffffffffffffffffffff166004546040516105ff90610c5b565b60006040518083038185875af1925050503d806000811461063c576040519150601f19603f3d011682016040523d82523d6000602084013e610641565b606091505b5050905080610685576040517f08c379a000000000000000000000000000000000000000000000000000000000815260040161067c90610d3d565b60405180910390fd5b5050565b610721828260405160240161069f929190610cdd565b6040516020818303038152906040527f319af333000000000000000000000000000000000000000000000000000000007bffffffffffffffffffffffffffffffffffffffffffffffffffffffff19166020820180517bffffffffffffffffffffffffffffffffffffffffffffffffffffffff83818316178352505050506108f6565b5050565b6107bb816040516024016107399190610cbb565b6040516020818303038152906040527f41304fac000000000000000000000000000000000000000000000000000000007bffffffffffffffffffffffffffffffffffffffffffffffffffffffff19166020820180517bffffffffffffffffffffffffffffffffffffffffffffffffffffffff83818316178352505050506108f6565b50565b61085682826040516024016107d4929190610c70565b6040516020818303038152906040527f2243cfa3000000000000000000000000000000000000000000000000000000007bffffffffffffffffffffffffffffffffffffffffffffffffffffffff19166020820180517bffffffffffffffffffffffffffffffffffffffffffffffffffffffff83818316178352505050506108f6565b5050565b6108f28282604051602401610870929190610d0d565b6040516020818303038152906040527f9710a9d0000000000000000000000000000000000000000000000000000000007bffffffffffffffffffffffffffffffffffffffffffffffffffffffff19166020820180517bffffffffffffffffffffffffffffffffffffffffffffffffffffffff83818316178352505050506108f6565b5050565b60008151905060006a636f6e736f6c652e6c6f679050602083016000808483855afa5050505050565b82805461092b90610f63565b90600052602060002090601f01602090048101928261094d5760008555610994565b82601f1061096657805160ff1916838001178555610994565b82800160010185558215610994579182015b82811115610993578251825591602001919060010190610978565b5b5090506109a191906109a5565b5090565b5b808211156109be5760008160009055506001016109a6565b5090565b60006109d56109d084610ded565b610dc8565b9050828152602081018484840111156109ed57600080fd5b6109f8848285610f21565b509392505050565b600082601f830112610a1157600080fd5b8135610a218482602086016109c2565b91505092915050565b600060208284031215610a3c57600080fd5b600082013567ffffffffffffffff811115610a5657600080fd5b610a6284828501610a00565b91505092915050565b6000610a778383610bed565b905092915050565b610a8881610ee5565b82525050565b610a9781610ee5565b82525050565b6000610aa882610e2e565b610ab28185610e51565b935083602082028501610ac485610e1e565b8060005b85811015610b005784840389528151610ae18582610a6b565b9450610aec83610e44565b925060208a01995050600181019050610ac8565b50829750879550505050505092915050565b6000610b1d82610e39565b610b278185610e6d565b9350610b37818560208601610f30565b610b408161109c565b840191505092915050565b6000610b5682610e39565b610b608185610e7e565b9350610b70818560208601610f30565b610b798161109c565b840191505092915050565b6000610b91602783610e7e565b9150610b9c826110ad565b604082019050919050565b6000610bb4604483610e7e565b9150610bbf826110fc565b606082019050919050565b6000610bd7600083610e62565b9150610be282611171565b600082019050919050565b6000606083016000830151610c056000860182610a7f565b5060208301518482036020860152610c1d8282610b12565b9150506040830151610c326040860182610c3d565b508091505092915050565b610c4681610f17565b82525050565b610c5581610f17565b82525050565b6000610c6682610bca565b9150819050919050565b6000604082019050610c856000830185610a8e565b610c926020830184610c4c565b9392505050565b60006020820190508181036000830152610cb38184610a9d565b905092915050565b60006020820190508181036000830152610cd58184610b4b565b905092915050565b60006040820190508181036000830152610cf78185610b4b565b9050610d066020830184610a8e565b9392505050565b60006040820190508181036000830152610d278185610b4b565b9050610d366020830184610c4c565b9392505050565b60006020820190508181036000830152610d5681610b84565b9050919050565b60006020820190508181036000830152610d7681610ba7565b9050919050565b6000602082019050610d926000830184610c4c565b92915050565b6000604082019050610dad6000830185610c4c565b8181036020830152610dbf8184610b4b565b90509392505050565b6000610dd2610de3565b9050610dde8282610f95565b919050565b6000604051905090565b600067ffffffffffffffff821115610e0857610e0761106d565b5b610e118261109c565b9050602081019050919050565b6000819050602082019050919050565b600081519050919050565b600081519050919050565b6000602082019050919050565b600082825260208201905092915050565b600081905092915050565b600082825260208201905092915050565b600082825260208201905092915050565b6000610e9a82610f17565b9150610ea583610f17565b9250827fffffffffffffffffffffffffffffffffffffffffffffffffffffffffffffffff03821115610eda57610ed961100f565b5b828201905092915050565b6000610ef082610ef7565b9050919050565b600073ffffffffffffffffffffffffffffffffffffffff82169050919050565b6000819050919050565b82818337600083830152505050565b60005b83811015610f4e578082015181840152602081019050610f33565b83811115610f5d576000848401525b50505050565b60006002820490506001821680610f7b57607f821691505b60208210811415610f8f57610f8e61103e565b5b50919050565b610f9e8261109c565b810181811067ffffffffffffffff82111715610fbd57610fbc61106d565b5b80604052505050565b6000610fd182610f17565b91507fffffffffffffffffffffffffffffffffffffffffffffffffffffffffffffffff8214156110045761100361100f565b5b600182019050919050565b7f4e487b7100000000000000000000000000000000000000000000000000000000600052601160045260246000fd5b7f4e487b7100000000000000000000000000000000000000000000000000000000600052602260045260246000fd5b7f4e487b7100000000000000000000000000000000000000000000000000000000600052604160045260246000fd5b6000601f19601f8301169050919050565b7f4661696c656420746f207769746864726177206d6f6e65792066726f6d20636f60008201527f6e74726163742e00000000000000000000000000000000000000000000000000602082015250565b7f596f752061726520747279696e6720746f207769746864726177206d6f6e657960008201527f206d6f7265207468616e2077686174207765206861766520696e20436f6e747260208201527f6163742100000000000000000000000000000000000000000000000000000000604082015250565b5056fea2646970667358221220fd4d60a882d2f1e598040201f7f579bde642aaad02a57229b7e15023394886e664736f6c6343000804003354686973206973206120736d61727420636f6e74726163742c20436f6e7472616374204f776e6572203d202573",
  "linkReferences": {},
  "deployedLinkReferences": {}
}