{
  "_format": "hh-sol-artifact-1",
  "contractName": "WavePortal",
  "sourceName": "contracts/WavePortal.sol",
  "abi": [
    {
      "inputs": [],
      "stateMutability": "payable",
      "type": "constructor"
    },
    {
      "anonymous": false,
      "inputs": [
        {
          "indexed": true,
          "internalType": "address",
          "name": "from",
          "type": "address"
        },
        {
          "indexed": false,
          "internalType": "uint256",
          "name": "timestamp",
          "type": "uint256"
        },
        {
          "indexed": false,
          "internalType": "string",
          "name": "message",
          "type": "string"
        }
      ],
      "name": "NewWave",
      "type": "event"
    },
    {
      "inputs": [
        {
          "internalType": "string",
          "name": "message",
          "type": "string"
        }
      ],
      "name": "AddWave",
      "outputs": [],
      "stateMutability": "nonpayable",
      "type": "function"
    },
    {
      "inputs": [],
      "name": "addressThatWavedUs",
      "outputs": [],
      "stateMutability": "view",
      "type": "function"
    },
    {
      "inputs": [],
      "name": "getAllWaves",
      "outputs": [
        {
          "components": [
            {
              "internalType": "address",
              "name": "waver",
              "type": "address"
            },
            {
              "internalType": "string",
              "name": "message",
              "type": "string"
            },
            {
              "internalType": "uint256",
              "name": "timestamp",
              "type": "uint256"
            }
          ],
          "internalType": "struct WavePortal.Wave[]",
          "name": "",
          "type": "tuple[]"
        }
      ],
      "stateMutability": "view",
      "type": "function"
    },
    {
      "inputs": [],
      "name": "getTotalWavesCount",
      "outputs": [
        {
          "internalType": "uint256",
          "name": "",
          "type": "uint256"
        }
      ],
      "stateMutability": "view",
      "type": "function"
    },
    {
      "inputs": [
        {
          "internalType": "address",
          "name": "",
          "type": "address"
        }
      ],
      "name": "lastWavedAt",
      "outputs": [
        {
          "internalType": "uint256",
          "name": "",
          "type": "uint256"
        }
      ],
      "stateMutability": "view",
      "type": "function"
    }
  ],
  "bytecode": "0x6080604052655af3107a400060055533600360006101000a81548173ffffffffffffffffffffffffffffffffffffffff021916908373ffffffffffffffffffffffffffffffffffffffff160217905550620000a16040518060600160405280602d81526020016200188e602d9139600360009054906101000a900473ffffffffffffffffffffffffffffffffffffffff16620000c960201b620008641760201c565b60644442620000b191906200023a565b620000bd91906200030b565b600081905550620003b2565b6200016b8282604051602401620000e2929190620001ea565b6040516020818303038152906040527f319af333000000000000000000000000000000000000000000000000000000007bffffffffffffffffffffffffffffffffffffffffffffffffffffffff19166020820180517bffffffffffffffffffffffffffffffffffffffffffffffffffffffff83818316178352505050506200016f60201b60201c565b5050565b60008151905060006a636f6e736f6c652e6c6f679050602083016000808483855afa5050505050565b620001a38162000297565b82525050565b6000620001b6826200021e565b620001c2818562000229565b9350620001d4818560208601620002d5565b620001df81620003a1565b840191505092915050565b60006040820190508181036000830152620002068185620001a9565b905062000217602083018462000198565b9392505050565b600081519050919050565b600082825260208201905092915050565b60006200024782620002cb565b91506200025483620002cb565b9250827fffffffffffffffffffffffffffffffffffffffffffffffffffffffffffffffff038211156200028c576200028b62000343565b5b828201905092915050565b6000620002a482620002ab565b9050919050565b600073ffffffffffffffffffffffffffffffffffffffff82169050919050565b6000819050919050565b60005b83811015620002f5578082015181840152602081019050620002d8565b8381111562000305576000848401525b50505050565b60006200031882620002cb565b91506200032583620002cb565b92508262000338576200033762000372565b5b828206905092915050565b7f4e487b7100000000000000000000000000000000000000000000000000000000600052601160045260246000fd5b7f4e487b7100000000000000000000000000000000000000000000000000000000600052601260045260246000fd5b6000601f19601f8301169050919050565b6114cc80620003c26000396000f3fe608060405234801561001057600080fd5b50600436106100575760003560e01c8063538629151461005c5780639d9e7ef514610066578063a42a466314610084578063bd43a908146100b4578063e0dc4f76146100d2575b600080fd5b6100646100ee565b005b61006e610212565b60405161007b9190610fd9565b60405180910390f35b61009e60048036038101906100999190610c1a565b61025d565b6040516100ab9190610fd9565b60405180910390f35b6100bc610275565b6040516100c99190610ed5565b60405180910390f35b6100ec60048036038101906100e79190610c43565b6103c6565b005b61012c6040518060400160405280601d81526020017f466f6c6c6f77696e672041646472657373657320776176656420757321000000815250610900565b60005b60028054905081101561020f576101fc60028281548110610179577f4e487b7100000000000000000000000000000000000000000000000000000000600052603260045260246000fd5b906000526020600020906002020160000160009054906101000a900473ffffffffffffffffffffffffffffffffffffffff16600283815481106101e5577f4e487b7100000000000000000000000000000000000000000000000000000000600052603260045260246000fd5b906000526020600020906002020160010154610999565b808061020790611222565b91505061012f565b50565b60006102556040518060400160405280601481526020017f546f74616c20776176657320636f756e743d2564000000000000000000000000815250600454610a35565b600454905090565b60066020528060005260406000206000915090505481565b60606001805480602002602001604051908101604052809291908181526020016000905b828210156103bd57838290600052602060002090600302016040518060600160405290816000820160009054906101000a900473ffffffffffffffffffffffffffffffffffffffff1673ffffffffffffffffffffffffffffffffffffffff1673ffffffffffffffffffffffffffffffffffffffff168152602001600182018054610322906111bf565b80601f016020809104026020016040519081016040528092919081815260200182805461034e906111bf565b801561039b5780601f106103705761010080835404028352916020019161039b565b820191906000526020600020905b81548152906001019060200180831161037e57829003601f168201915b5050505050815260200160028201548152505081526020019060010190610299565b50505050905090565b42610384600660003373ffffffffffffffffffffffffffffffffffffffff1673ffffffffffffffffffffffffffffffffffffffff1681526020019081526020016000205461041491906110eb565b10610454576040517f08c379a000000000000000000000000000000000000000000000000000000000815260040161044b90610fb9565b60405180910390fd5b42600660003373ffffffffffffffffffffffffffffffffffffffff1673ffffffffffffffffffffffffffffffffffffffff168152602001908152602001600020819055506001600460008282546104ab91906110eb565b925050819055506104f16040518060400160405280600d81526020017f257320686173207761766564210000000000000000000000000000000000000081525033610864565b6064600054424461050291906110eb565b61050c91906110eb565b610516919061126b565b60008190555061055d6040518060400160405280601681526020017f52616e646f6d20232067656e6572617465643a20256400000000000000000000815250600054610a35565b600160405180606001604052803373ffffffffffffffffffffffffffffffffffffffff16815260200183815260200142815250908060018154018082558091505060019003906000526020600020906003020160009091909190915060008201518160000160006101000a81548173ffffffffffffffffffffffffffffffffffffffff021916908373ffffffffffffffffffffffffffffffffffffffff160217905550602082015181600101908051906020019061061c929190610afa565b50604082015181600201555050600260405180604001604052803373ffffffffffffffffffffffffffffffffffffffff1681526020016001815250908060018154018082558091505060019003906000526020600020906002020160009091909190915060008201518160000160006101000a81548173ffffffffffffffffffffffffffffffffffffffff021916908373ffffffffffffffffffffffffffffffffffffffff1602179055506020820151816001015550506032600054116108115761071c6040518060400160405280600781526020017f257320776f6e210000000000000000000000000000000000000000000000000081525033610864565b476005541115610761576040517f08c379a000000000000000000000000000000000000000000000000000000000815260040161075890610f99565b60405180910390fd5b60003373ffffffffffffffffffffffffffffffffffffffff1660055460405161078990610e97565b60006040518083038185875af1925050503d80600081146107c6576040519150601f19603f3d011682016040523d82523d6000602084013e6107cb565b606091505b505090508061080f576040517f08c379a000000000000000000000000000000000000000000000000000000000815260040161080690610f79565b60405180910390fd5b505b3373ffffffffffffffffffffffffffffffffffffffff167f5f7e16dc676677766a70e9c5628aa6c54ddb8b6e5188e2ae1e1f17f1ffbea7164283604051610859929190610ff4565b60405180910390a250565b6108fc828260405160240161087a929190610f19565b6040516020818303038152906040527f319af333000000000000000000000000000000000000000000000000000000007bffffffffffffffffffffffffffffffffffffffffffffffffffffffff19166020820180517bffffffffffffffffffffffffffffffffffffffffffffffffffffffff8381831617835250505050610ad1565b5050565b610996816040516024016109149190610ef7565b6040516020818303038152906040527f41304fac000000000000000000000000000000000000000000000000000000007bffffffffffffffffffffffffffffffffffffffffffffffffffffffff19166020820180517bffffffffffffffffffffffffffffffffffffffffffffffffffffffff8381831617835250505050610ad1565b50565b610a3182826040516024016109af929190610eac565b6040516020818303038152906040527f2243cfa3000000000000000000000000000000000000000000000000000000007bffffffffffffffffffffffffffffffffffffffffffffffffffffffff19166020820180517bffffffffffffffffffffffffffffffffffffffffffffffffffffffff8381831617835250505050610ad1565b5050565b610acd8282604051602401610a4b929190610f49565b6040516020818303038152906040527f9710a9d0000000000000000000000000000000000000000000000000000000007bffffffffffffffffffffffffffffffffffffffffffffffffffffffff19166020820180517bffffffffffffffffffffffffffffffffffffffffffffffffffffffff8381831617835250505050610ad1565b5050565b60008151905060006a636f6e736f6c652e6c6f679050602083016000808483855afa5050505050565b828054610b06906111bf565b90600052602060002090601f016020900481019282610b285760008555610b6f565b82601f10610b4157805160ff1916838001178555610b6f565b82800160010185558215610b6f579182015b82811115610b6e578251825591602001919060010190610b53565b5b509050610b7c9190610b80565b5090565b5b80821115610b99576000816000905550600101610b81565b5090565b6000610bb0610bab84611049565b611024565b905082815260208101848484011115610bc857600080fd5b610bd384828561117d565b509392505050565b600081359050610bea8161147f565b92915050565b600082601f830112610c0157600080fd5b8135610c11848260208601610b9d565b91505092915050565b600060208284031215610c2c57600080fd5b6000610c3a84828501610bdb565b91505092915050565b600060208284031215610c5557600080fd5b600082013567ffffffffffffffff811115610c6f57600080fd5b610c7b84828501610bf0565b91505092915050565b6000610c908383610e29565b905092915050565b610ca181611141565b82525050565b610cb081611141565b82525050565b6000610cc18261108a565b610ccb81856110ad565b935083602082028501610cdd8561107a565b8060005b85811015610d195784840389528151610cfa8582610c84565b9450610d05836110a0565b925060208a01995050600181019050610ce1565b50829750879550505050505092915050565b6000610d3682611095565b610d4081856110c9565b9350610d5081856020860161118c565b610d5981611358565b840191505092915050565b6000610d6f82611095565b610d7981856110da565b9350610d8981856020860161118c565b610d9281611358565b840191505092915050565b6000610daa6027836110da565b9150610db582611369565b604082019050919050565b6000610dcd6044836110da565b9150610dd8826113b8565b606082019050919050565b6000610df06033836110da565b9150610dfb8261142d565b604082019050919050565b6000610e136000836110be565b9150610e1e8261147c565b600082019050919050565b6000606083016000830151610e416000860182610c98565b5060208301518482036020860152610e598282610d2b565b9150506040830151610e6e6040860182610e79565b508091505092915050565b610e8281611173565b82525050565b610e9181611173565b82525050565b6000610ea282610e06565b9150819050919050565b6000604082019050610ec16000830185610ca7565b610ece6020830184610e88565b9392505050565b60006020820190508181036000830152610eef8184610cb6565b905092915050565b60006020820190508181036000830152610f118184610d64565b905092915050565b60006040820190508181036000830152610f338185610d64565b9050610f426020830184610ca7565b9392505050565b60006040820190508181036000830152610f638185610d64565b9050610f726020830184610e88565b9392505050565b60006020820190508181036000830152610f9281610d9d565b9050919050565b60006020820190508181036000830152610fb281610dc0565b9050919050565b60006020820190508181036000830152610fd281610de3565b9050919050565b6000602082019050610fee6000830184610e88565b92915050565b60006040820190506110096000830185610e88565b818103602083015261101b8184610d64565b90509392505050565b600061102e61103f565b905061103a82826111f1565b919050565b6000604051905090565b600067ffffffffffffffff82111561106457611063611329565b5b61106d82611358565b9050602081019050919050565b6000819050602082019050919050565b600081519050919050565b600081519050919050565b6000602082019050919050565b600082825260208201905092915050565b600081905092915050565b600082825260208201905092915050565b600082825260208201905092915050565b60006110f682611173565b915061110183611173565b9250827fffffffffffffffffffffffffffffffffffffffffffffffffffffffffffffffff038211156111365761113561129c565b5b828201905092915050565b600061114c82611153565b9050919050565b600073ffffffffffffffffffffffffffffffffffffffff82169050919050565b6000819050919050565b82818337600083830152505050565b60005b838110156111aa57808201518184015260208101905061118f565b838111156111b9576000848401525b50505050565b600060028204905060018216806111d757607f821691505b602082108114156111eb576111ea6112fa565b5b50919050565b6111fa82611358565b810181811067ffffffffffffffff8211171561121957611218611329565b5b80604052505050565b600061122d82611173565b91507fffffffffffffffffffffffffffffffffffffffffffffffffffffffffffffffff8214156112605761125f61129c565b5b600182019050919050565b600061127682611173565b915061128183611173565b925082611291576112906112cb565b5b828206905092915050565b7f4e487b7100000000000000000000000000000000000000000000000000000000600052601160045260246000fd5b7f4e487b7100000000000000000000000000000000000000000000000000000000600052601260045260246000fd5b7f4e487b7100000000000000000000000000000000000000000000000000000000600052602260045260246000fd5b7f4e487b7100000000000000000000000000000000000000000000000000000000600052604160045260246000fd5b6000601f19601f8301169050919050565b7f4661696c656420746f207769746864726177206d6f6e65792066726f6d20636f60008201527f6e74726163742e00000000000000000000000000000000000000000000000000602082015250565b7f596f752061726520747279696e6720746f207769746864726177206d6f6e657960008201527f206d6f7265207468616e2077686174207765206861766520696e20436f6e747260208201527f6163742100000000000000000000000000000000000000000000000000000000604082015250565b7f4f6f70732c20796f752061726520696e20636f6f6c646f776e20706572696f6460008201527f2c2057616974203135206d696e757465732e2e00000000000000000000000000602082015250565b50565b61148881611141565b811461149357600080fd5b5056fea2646970667358221220c709c5d91d84083030b7efc4527e4ad0ef6bd963973924bb832a3b8844684b8e64736f6c6343000804003354686973206973206120736d61727420636f6e74726163742c20436f6e7472616374204f776e6572203d202573",
  "linkReferences": {},
  "deployedLinkReferences": {}
}