{
  "_format": "hh-sol-artifact-1",
  "contractName": "WavePortal",
  "sourceName": "contracts/WavePortal.sol",
  "abi": [
    {
      "inputs": [],
      "stateMutability": "nonpayable",
      "type": "constructor"
    },
    {
      "anonymous": false,
      "inputs": [
        {
          "indexed": true,
          "internalType": "address",
          "name": "from",
          "type": "address"
        },
        {
          "indexed": false,
          "internalType": "uint256",
          "name": "timestamp",
          "type": "uint256"
        },
        {
          "indexed": false,
          "internalType": "string",
          "name": "message",
          "type": "string"
        }
      ],
      "name": "NewWave",
      "type": "event"
    },
    {
      "inputs": [
        {
          "internalType": "string",
          "name": "message",
          "type": "string"
        }
      ],
      "name": "AddWave",
      "outputs": [],
      "stateMutability": "nonpayable",
      "type": "function"
    },
    {
      "inputs": [],
      "name": "addressThatWavedUs",
      "outputs": [],
      "stateMutability": "view",
      "type": "function"
    },
    {
      "inputs": [],
      "name": "getAllWaves",
      "outputs": [
        {
          "components": [
            {
              "internalType": "address",
              "name": "waver",
              "type": "address"
            },
            {
              "internalType": "string",
              "name": "message",
              "type": "string"
            },
            {
              "internalType": "uint256",
              "name": "timestamp",
              "type": "uint256"
            }
          ],
          "internalType": "struct WavePortal.Wave[]",
          "name": "",
          "type": "tuple[]"
        }
      ],
      "stateMutability": "view",
      "type": "function"
    },
    {
      "inputs": [],
      "name": "getTotalWavesCount",
      "outputs": [
        {
          "internalType": "uint256",
          "name": "",
          "type": "uint256"
        }
      ],
      "stateMutability": "view",
      "type": "function"
    }
  ],
  "bytecode": "0x60806040523480156200001157600080fd5b5033600260006101000a81548173ffffffffffffffffffffffffffffffffffffffff021916908373ffffffffffffffffffffffffffffffffffffffff160217905550620000a56040518060600160405280602d8152602001620011cd602d9139600260009054906101000a900473ffffffffffffffffffffffffffffffffffffffff16620000ab60201b620005951760201c565b62000297565b6200014d8282604051602401620000c4929190620001cc565b6040516020818303038152906040527f319af333000000000000000000000000000000000000000000000000000000007bffffffffffffffffffffffffffffffffffffffffffffffffffffffff19166020820180517bffffffffffffffffffffffffffffffffffffffffffffffffffffffff83818316178352505050506200015160201b60201c565b5050565b60008151905060006a636f6e736f6c652e6c6f679050602083016000808483855afa5050505050565b62000185816200021c565b82525050565b6000620001988262000200565b620001a481856200020b565b9350620001b681856020860162000250565b620001c18162000286565b840191505092915050565b60006040820190508181036000830152620001e881856200018b565b9050620001f960208301846200017a565b9392505050565b600081519050919050565b600082825260208201905092915050565b6000620002298262000230565b9050919050565b600073ffffffffffffffffffffffffffffffffffffffff82169050919050565b60005b838110156200027057808201518184015260208101905062000253565b8381111562000280576000848401525b50505050565b6000601f19601f8301169050919050565b610f2680620002a76000396000f3fe608060405234801561001057600080fd5b506004361061004c5760003560e01c806353862915146100515780639d9e7ef51461005b578063bd43a90814610079578063e0dc4f7614610097575b600080fd5b6100596100b3565b005b6100636101d7565b6040516100709190610bcb565b60405180910390f35b610081610222565b60405161008e9190610b27565b60405180910390f35b6100b160048036038101906100ac9190610936565b610373565b005b6100f16040518060400160405280601d81526020017f466f6c6c6f77696e672041646472657373657320776176656420757321000000815250610631565b60005b6001805490508110156101d4576101c16001828154811061013e577f4e487b7100000000000000000000000000000000000000000000000000000000600052603260045260246000fd5b906000526020600020906002020160000160009054906101000a900473ffffffffffffffffffffffffffffffffffffffff16600183815481106101aa577f4e487b7100000000000000000000000000000000000000000000000000000000600052603260045260246000fd5b9060005260206000209060020201600101546106ca565b80806101cc90610e09565b9150506100f4565b50565b600061021a6040518060400160405280601481526020017f546f74616c20776176657320636f756e743d2564000000000000000000000000815250600354610766565b600354905090565b60606000805480602002602001604051908101604052809291908181526020016000905b8282101561036a57838290600052602060002090600302016040518060600160405290816000820160009054906101000a900473ffffffffffffffffffffffffffffffffffffffff1673ffffffffffffffffffffffffffffffffffffffff1673ffffffffffffffffffffffffffffffffffffffff1681526020016001820180546102cf90610da6565b80601f01602080910402602001604051908101604052809291908181526020018280546102fb90610da6565b80156103485780601f1061031d57610100808354040283529160200191610348565b820191906000526020600020905b81548152906001019060200180831161032b57829003601f168201915b5050505050815260200160028201548152505081526020019060010190610246565b50505050905090565b6001600360008282546103869190610cd2565b925050819055506103cc6040518060400160405280600d81526020017f257320686173207761766564210000000000000000000000000000000000000081525033610595565b600060405180606001604052803373ffffffffffffffffffffffffffffffffffffffff16815260200183815260200142815250908060018154018082558091505060019003906000526020600020906003020160009091909190915060008201518160000160006101000a81548173ffffffffffffffffffffffffffffffffffffffff021916908373ffffffffffffffffffffffffffffffffffffffff160217905550602082015181600101908051906020019061048b92919061082b565b50604082015181600201555050600160405180604001604052803373ffffffffffffffffffffffffffffffffffffffff1681526020016001815250908060018154018082558091505060019003906000526020600020906002020160009091909190915060008201518160000160006101000a81548173ffffffffffffffffffffffffffffffffffffffff021916908373ffffffffffffffffffffffffffffffffffffffff1602179055506020820151816001015550503373ffffffffffffffffffffffffffffffffffffffff167f5f7e16dc676677766a70e9c5628aa6c54ddb8b6e5188e2ae1e1f17f1ffbea716428360405161058a929190610be6565b60405180910390a250565b61062d82826040516024016105ab929190610b6b565b6040516020818303038152906040527f319af333000000000000000000000000000000000000000000000000000000007bffffffffffffffffffffffffffffffffffffffffffffffffffffffff19166020820180517bffffffffffffffffffffffffffffffffffffffffffffffffffffffff8381831617835250505050610802565b5050565b6106c7816040516024016106459190610b49565b6040516020818303038152906040527f41304fac000000000000000000000000000000000000000000000000000000007bffffffffffffffffffffffffffffffffffffffffffffffffffffffff19166020820180517bffffffffffffffffffffffffffffffffffffffffffffffffffffffff8381831617835250505050610802565b50565b61076282826040516024016106e0929190610afe565b6040516020818303038152906040527f2243cfa3000000000000000000000000000000000000000000000000000000007bffffffffffffffffffffffffffffffffffffffffffffffffffffffff19166020820180517bffffffffffffffffffffffffffffffffffffffffffffffffffffffff8381831617835250505050610802565b5050565b6107fe828260405160240161077c929190610b9b565b6040516020818303038152906040527f9710a9d0000000000000000000000000000000000000000000000000000000007bffffffffffffffffffffffffffffffffffffffffffffffffffffffff19166020820180517bffffffffffffffffffffffffffffffffffffffffffffffffffffffff8381831617835250505050610802565b5050565b60008151905060006a636f6e736f6c652e6c6f679050602083016000808483855afa5050505050565b82805461083790610da6565b90600052602060002090601f01602090048101928261085957600085556108a0565b82601f1061087257805160ff19168380011785556108a0565b828001600101855582156108a0579182015b8281111561089f578251825591602001919060010190610884565b5b5090506108ad91906108b1565b5090565b5b808211156108ca5760008160009055506001016108b2565b5090565b60006108e16108dc84610c3b565b610c16565b9050828152602081018484840111156108f957600080fd5b610904848285610d64565b509392505050565b600082601f83011261091d57600080fd5b813561092d8482602086016108ce565b91505092915050565b60006020828403121561094857600080fd5b600082013567ffffffffffffffff81111561096257600080fd5b61096e8482850161090c565b91505092915050565b60006109838383610a90565b905092915050565b61099481610d28565b82525050565b6109a381610d28565b82525050565b60006109b482610c7c565b6109be8185610c9f565b9350836020820285016109d085610c6c565b8060005b85811015610a0c57848403895281516109ed8582610977565b94506109f883610c92565b925060208a019950506001810190506109d4565b50829750879550505050505092915050565b6000610a2982610c87565b610a338185610cb0565b9350610a43818560208601610d73565b610a4c81610edf565b840191505092915050565b6000610a6282610c87565b610a6c8185610cc1565b9350610a7c818560208601610d73565b610a8581610edf565b840191505092915050565b6000606083016000830151610aa8600086018261098b565b5060208301518482036020860152610ac08282610a1e565b9150506040830151610ad56040860182610ae0565b508091505092915050565b610ae981610d5a565b82525050565b610af881610d5a565b82525050565b6000604082019050610b13600083018561099a565b610b206020830184610aef565b9392505050565b60006020820190508181036000830152610b4181846109a9565b905092915050565b60006020820190508181036000830152610b638184610a57565b905092915050565b60006040820190508181036000830152610b858185610a57565b9050610b94602083018461099a565b9392505050565b60006040820190508181036000830152610bb58185610a57565b9050610bc46020830184610aef565b9392505050565b6000602082019050610be06000830184610aef565b92915050565b6000604082019050610bfb6000830185610aef565b8181036020830152610c0d8184610a57565b90509392505050565b6000610c20610c31565b9050610c2c8282610dd8565b919050565b6000604051905090565b600067ffffffffffffffff821115610c5657610c55610eb0565b5b610c5f82610edf565b9050602081019050919050565b6000819050602082019050919050565b600081519050919050565b600081519050919050565b6000602082019050919050565b600082825260208201905092915050565b600082825260208201905092915050565b600082825260208201905092915050565b6000610cdd82610d5a565b9150610ce883610d5a565b9250827fffffffffffffffffffffffffffffffffffffffffffffffffffffffffffffffff03821115610d1d57610d1c610e52565b5b828201905092915050565b6000610d3382610d3a565b9050919050565b600073ffffffffffffffffffffffffffffffffffffffff82169050919050565b6000819050919050565b82818337600083830152505050565b60005b83811015610d91578082015181840152602081019050610d76565b83811115610da0576000848401525b50505050565b60006002820490506001821680610dbe57607f821691505b60208210811415610dd257610dd1610e81565b5b50919050565b610de182610edf565b810181811067ffffffffffffffff82111715610e0057610dff610eb0565b5b80604052505050565b6000610e1482610d5a565b91507fffffffffffffffffffffffffffffffffffffffffffffffffffffffffffffffff821415610e4757610e46610e52565b5b600182019050919050565b7f4e487b7100000000000000000000000000000000000000000000000000000000600052601160045260246000fd5b7f4e487b7100000000000000000000000000000000000000000000000000000000600052602260045260246000fd5b7f4e487b7100000000000000000000000000000000000000000000000000000000600052604160045260246000fd5b6000601f19601f830116905091905056fea2646970667358221220e04e1a8ae8810e3010bc537cb812720f9224461a8e9f98fcd43f9cffda527afa64736f6c6343000804003354686973206973206120736d61727420636f6e74726163742c20436f6e7472616374204f776e6572203d202573",
  "linkReferences": {},
  "deployedLinkReferences": {}
}