{
  "_format": "hh-sol-artifact-1",
  "contractName": "WavePortal",
  "sourceName": "contracts/WavePortal.sol",
  "abi": [
    {
      "inputs": [],
      "stateMutability": "nonpayable",
      "type": "constructor"
    },
    {
      "inputs": [],
      "name": "AddWave",
      "outputs": [],
      "stateMutability": "nonpayable",
      "type": "function"
    },
    {
      "inputs": [],
      "name": "addressThatWavedUs",
      "outputs": [],
      "stateMutability": "view",
      "type": "function"
    },
    {
      "inputs": [],
      "name": "getTotalWavesCount",
      "outputs": [
        {
          "internalType": "uint256",
          "name": "",
          "type": "uint256"
        }
      ],
      "stateMutability": "view",
      "type": "function"
    },
    {
      "inputs": [],
      "name": "owner",
      "outputs": [
        {
          "internalType": "address",
          "name": "",
          "type": "address"
        }
      ],
      "stateMutability": "view",
      "type": "function"
    },
    {
      "inputs": [
        {
          "internalType": "uint256",
          "name": "",
          "type": "uint256"
        }
      ],
      "name": "waversArr",
      "outputs": [
        {
          "internalType": "address",
          "name": "addr",
          "type": "address"
        },
        {
          "internalType": "uint256",
          "name": "amount",
          "type": "uint256"
        }
      ],
      "stateMutability": "view",
      "type": "function"
    }
  ],
  "bytecode": "0x60806040523480156200001157600080fd5b5033600160006101000a81548173ffffffffffffffffffffffffffffffffffffffff021916908373ffffffffffffffffffffffffffffffffffffffff160217905550620000a560405180606001604052806031815260200162000c3560319139600160009054906101000a900473ffffffffffffffffffffffffffffffffffffffff16620000ab60201b620003cb1760201c565b62000297565b6200014d8282604051602401620000c4929190620001cc565b6040516020818303038152906040527f319af333000000000000000000000000000000000000000000000000000000007bffffffffffffffffffffffffffffffffffffffffffffffffffffffff19166020820180517bffffffffffffffffffffffffffffffffffffffffffffffffffffffff83818316178352505050506200015160201b60201c565b5050565b60008151905060006a636f6e736f6c652e6c6f679050602083016000808483855afa5050505050565b62000185816200021c565b82525050565b6000620001988262000200565b620001a481856200020b565b9350620001b681856020860162000250565b620001c18162000286565b840191505092915050565b60006040820190508181036000830152620001e881856200018b565b9050620001f960208301846200017a565b9392505050565b600081519050919050565b600082825260208201905092915050565b6000620002298262000230565b9050919050565b600073ffffffffffffffffffffffffffffffffffffffff82169050919050565b60005b838110156200027057808201518184015260208101905062000253565b8381111562000280576000848401525b50505050565b6000601f19601f8301169050919050565b61098e80620002a76000396000f3fe608060405234801561001057600080fd5b50600436106100575760003560e01c80634c2d66641461005c57806353862915146100665780636721dcd9146100705780638da5cb5b146100a15780639d9e7ef5146100bf575b600080fd5b6100646100dd565b005b61006e6101e2565b005b61008a60048036038101906100859190610676565b610306565b604051610098929190610711565b60405180910390f35b6100a961035a565b6040516100b691906106f6565b60405180910390f35b6100c7610380565b6040516100d491906107bc565b60405180910390f35b6001600260008282546100f091906107f3565b925050819055506101366040518060400160405280600d81526020017f2573206861732077617665642100000000000000000000000000000000000000815250336103cb565b600060405180604001604052803373ffffffffffffffffffffffffffffffffffffffff1681526020016001815250908060018154018082558091505060019003906000526020600020906002020160009091909190915060008201518160000160006101000a81548173ffffffffffffffffffffffffffffffffffffffff021916908373ffffffffffffffffffffffffffffffffffffffff160217905550602082015181600101555050565b6102206040518060400160405280601d81526020017f466f6c6c6f77696e672041646472657373657320776176656420757321000000815250610467565b60005b600080549050811015610303576102f06000828154811061026d577f4e487b7100000000000000000000000000000000000000000000000000000000600052603260045260246000fd5b906000526020600020906002020160000160009054906101000a900473ffffffffffffffffffffffffffffffffffffffff16600083815481106102d9577f4e487b7100000000000000000000000000000000000000000000000000000000600052603260045260246000fd5b906000526020600020906002020160010154610500565b80806102fb906108b8565b915050610223565b50565b6000818154811061031657600080fd5b90600052602060002090600202016000915090508060000160009054906101000a900473ffffffffffffffffffffffffffffffffffffffff16908060010154905082565b600160009054906101000a900473ffffffffffffffffffffffffffffffffffffffff1681565b60006103c36040518060400160405280601481526020017f546f74616c20776176657320636f756e743d256400000000000000000000000081525060025461059c565b600254905090565b61046382826040516024016103e192919061075c565b6040516020818303038152906040527f319af333000000000000000000000000000000000000000000000000000000007bffffffffffffffffffffffffffffffffffffffffffffffffffffffff19166020820180517bffffffffffffffffffffffffffffffffffffffffffffffffffffffff8381831617835250505050610638565b5050565b6104fd8160405160240161047b919061073a565b6040516020818303038152906040527f41304fac000000000000000000000000000000000000000000000000000000007bffffffffffffffffffffffffffffffffffffffffffffffffffffffff19166020820180517bffffffffffffffffffffffffffffffffffffffffffffffffffffffff8381831617835250505050610638565b50565b6105988282604051602401610516929190610711565b6040516020818303038152906040527f2243cfa3000000000000000000000000000000000000000000000000000000007bffffffffffffffffffffffffffffffffffffffffffffffffffffffff19166020820180517bffffffffffffffffffffffffffffffffffffffffffffffffffffffff8381831617835250505050610638565b5050565b61063482826040516024016105b292919061078c565b6040516020818303038152906040527f9710a9d0000000000000000000000000000000000000000000000000000000007bffffffffffffffffffffffffffffffffffffffffffffffffffffffff19166020820180517bffffffffffffffffffffffffffffffffffffffffffffffffffffffff8381831617835250505050610638565b5050565b60008151905060006a636f6e736f6c652e6c6f679050602083016000808483855afa5050505050565b60008135905061067081610941565b92915050565b60006020828403121561068857600080fd5b600061069684828501610661565b91505092915050565b6106a881610849565b82525050565b60006106b9826107d7565b6106c381856107e2565b93506106d3818560208601610885565b6106dc81610930565b840191505092915050565b6106f08161087b565b82525050565b600060208201905061070b600083018461069f565b92915050565b6000604082019050610726600083018561069f565b61073360208301846106e7565b9392505050565b6000602082019050818103600083015261075481846106ae565b905092915050565b6000604082019050818103600083015261077681856106ae565b9050610785602083018461069f565b9392505050565b600060408201905081810360008301526107a681856106ae565b90506107b560208301846106e7565b9392505050565b60006020820190506107d160008301846106e7565b92915050565b600081519050919050565b600082825260208201905092915050565b60006107fe8261087b565b91506108098361087b565b9250827fffffffffffffffffffffffffffffffffffffffffffffffffffffffffffffffff0382111561083e5761083d610901565b5b828201905092915050565b60006108548261085b565b9050919050565b600073ffffffffffffffffffffffffffffffffffffffff82169050919050565b6000819050919050565b60005b838110156108a3578082015181840152602081019050610888565b838111156108b2576000848401525b50505050565b60006108c38261087b565b91507fffffffffffffffffffffffffffffffffffffffffffffffffffffffffffffffff8214156108f6576108f5610901565b5b600182019050919050565b7f4e487b7100000000000000000000000000000000000000000000000000000000600052601160045260246000fd5b6000601f19601f8301169050919050565b61094a8161087b565b811461095557600080fd5b5056fea26469706673582212209a0b0800fd8b1495ab10b0d573df2c3d8fbd244879b1f8e178eb8ed7c1b1bba564736f6c63430008040033596f20796f2c204920616d206120636f6e747261637420616e64204920616d20736d6172742c206f776e6572203d202573",
  "linkReferences": {},
  "deployedLinkReferences": {}
}